:100000000C9434000C943E000C943E000C943E0082
:100010000C943E000C943E000C943E000C943E0068
:100020000C943E000C943E000C943E000C943E0058
:100030000C943E000C943E000C943E000C943E0048
:100040000C943E000C943E000C943E000C943E0038
:100050000C943E000C943E000C943E000C943E0028
:100060000C943E000C943E0011241FBECFEFD8E04C
:10007000DEBFCDBF0E9440000C945A000C940000DB
:1000800081E087B94098C8E8D0E049E05DE3A0E8A6
:10009000B0E0E1E8F0E02CE091E0598348831C9265
:1000A0002083B199FACFB19A88B1892788B9B19BD9
:0800B000FACFF3CFF894FFCF63
:00000001FF
