:020000020000FC
:1000000008E00EBF0FEF0DBF389A3C9A3D9A01E011
:1000100011E018B9509A519A529A539A549A559A93
:10002000569A579A20E02BB930E050E060E070E13A
:1000300080E217D0102718B920272BB9320F3BB90F
:10004000539563955A3009F0F4CF172718B950E04B
:10005000643111F00C942400182718B960E00C9456
:10006000240045E8409385004DEE4093840040E035
:100070004093800043E04093810046B340FFFDCFB2
:0A00800041E04093810046BB089563
:00000001FF
