:100000000C9434000C943E000C943E000C943E0082
:100010000C943E000C943E000C943E000C943E0068
:100020000C943E000C943E000C943E000C943E0058
:100030000C943E000C943E000C943E000C943E0048
:100040000C943E000C943E000C943E000C943E0038
:100050000C943E000C943E000C943E000C943E0028
:100060000C943E000C943E0011241FBECFEFD8E04C
:10007000DEBFCDBF0E9440000C949C000C94000099
:10008000399AECE7F0E0808180648083EAE7F0E071
:10009000808187608083808180688083A8E7B0E06A
:1000A000808180648083808186FDFDCF8D919C91CD
:1000B00011978A3F910560F4419A41982FEF80E7AC
:1000C00092E0215080409040E1F700C00000E8CF6E
:1000D0009C012A5F31092A3F310590F4419A8FE44F
:1000E00093EC0197F1F700C0000041989FEF20E7E3
:1000F00082E0915020408040E1F700C00000D0CF66
:10010000845F91408A3F9105A8F4419A9FEF20E7D0
:1001100082E0915020408040E1F700C0000041980B
:100120009FEF20E782E0915020408040E1F700C03F
:0C0130000000B6CF419AB4CFF894FFCF86
:00000001FF
