:100000000C9434000C943E000C943E000C943E0082
:100010000C943E000C943E000C943E000C943E0068
:100020000C943E000C943E000C943E000C943E0058
:100030000C943E000C943E000C943E000C943E0048
:100040000C943E000C943E000C943E000C943E0038
:100050000C943E000C943E000C943E000C943E0028
:100060000C943E000C943E0011241FBECFEFD8E04C
:10007000DEBFCDBF0E9440000C9485000C940000B0
:1000800087B1816387B940988AB18FEF8AB91BB86D
:1000900060E020E080E051E040E004E810E0CDEED8
:1000A000D5E86894CC24C7F8D12CE1E8F0E073E0FF
:1000B00031E00F2EF1E1FF2EF02D0F2EF1E3EF2EA8
:1000C000F02D02C020E0592FD8011196DC93CE9379
:1000D000D6011C927083B09BFECF3083B09A952FCF
:1000E000932798B983278BB9480F4BB92F5F6F5F60
:1000F0002A3049F7952F9F2598B9643119F7952F24
:0E0100009E2598B960E020E0DECFF894FFCF96
:00000001FF
